:020000040800F2
:1000000060070020550A00081502000817020008C2
:100010001B0200081F020008230200080000000065
:10002000000000000000000000000000270200089F
:1000300029020008000000002B0200082D02000821
:100040006F0A00086F0A00086F0A00086F0A0008AC
:100050006F0A00086F0A0008830700086F0A00088B
:100060006F0A00086F0A00086F0A00086F0A00088C
:100070006F0A00086F0A00086F0A00086F0A00087C
:100080006F0A00086F0A00086F0A00086F0A00086C
:100090006F0A00086F0A00086F0A0008D3070008FB
:1000A0006F0A00086F0A00086F0A00086F0A00084C
:1000B0006F0A00086F0A00086F0A00086F0A00083C
:1000C0006F0A00086F0A00086F0A00086F0A00082C
:1000D0006F0A0008CB0900086F0A00086F0A0008C1
:1000E000FF0700086F0A00086F0A00086F0A00087F
:1000F0006F0A00086F0A00086F0A00086F0A0008FC
:100100006F0A00086F0A00086F0A00086F0A0008EB
:100110006F0A00086F0A00086F0A00086F0A0008DB
:100120006F0A00086F0A00086F0A00086F0A0008CB
:1001300000F002F800F03AF80AA090E8000C8244BF
:100140008344AAF10107DA4501D100F02FF8AFF29C
:10015000090EBAE80F0013F0010F18BFFB1A43F0A5
:1001600001031847BC1F0000DC1F0000103A24BF29
:1001700078C878C1FAD8520724BF30C830C144BF0C
:1001800004680C607047000000230024002500264E
:10019000103A28BF78C1FBD8520728BF30C148BFEA
:1001A0000B6070471FB51FBD10B510BD01F0BDFB42
:1001B0001146FFF7F7FF00F009F801F0DBFB03B48D
:1001C000FFF7F2FF03BC00F0A5FB000000F038FBD6
:1001D0004FF4A06001F0E2F900F0C0F900F040F93E
:1001E00000F016F900F060FA0EE000F0E6F90020E9
:1001F00006490860C82000F060FB01200449C1F8EE
:10020000A001C82000F059FBEFE70000A001214247
:1002100000002142704700BFFEE700BFFEE700BFBD
:10022000FEE700BFFEE77047704770477047000069
:100230000CB50020019000906C48006840F48030BC
:100240006A49086000BF6948006800F40030009007
:100250000198401C0190009818B90198B0F5A06F62
:10026000F1D16248006800F4003010B10120009024
:1002700001E0002000900098012843D15C4800680C
:1002800040F010005A4908600846006820F003005A
:1002900008600846006840F0020008605348406863
:1002A000524948600846406848600846406840F443
:1002B000806048600846406820F47C10486008462A
:1002C000406840F4E81048600846006840F08070DC
:1002D000086000BF4548006800F000700028F9D0B1
:1002E0004248406820F003004049486008464068A2
:1002F00040F00200486000BF3C48406800F00C003D
:100300000828F9D10CBD10B5FFF792FF10BD10B54C
:100310003648006840F001003449086008464068EB
:10032000344908403149486008460068324908406D
:100330002E4908600846006820F4802008600846BE
:10034000406820F4FE0048604FF41F008860FFF70B
:10035000DAFF4FF000602949086010BD10B5002198
:1003600000200022214B5B6803F00C0121B104291D
:1003700006D0082928D107E0214B224C236027E032
:100380001F4B204C236023E0184B5B6803F4701074
:10039000164B5B6803F48032022303EB904022B9D2
:1003A000194B4343174C23600DE0104B5B6803F47B
:1003B000003323B1144B4343124C236003E0104B32
:1003C0004343104C236003E00D4B0E4C236000BFF1
:1003D00000BF064B5B68C3F303130C4CE15C094B95
:1003E0001B68CB40074C236010BD0000001002408A
:1003F000002002400000FFF8FFFFF6FE08ED00E0DD
:1004000000127A000000002000093D0004000020D6
:1004100008B50121242000F059FE4FF48070ADF89A
:10042000000010208DF8030003208DF802006946BB
:10043000094800F08FFB4FF48071074800F037FC4B
:100440000420ADF800006946044800F083FB042155
:10045000024800F02CFC08BD0008014000140140D7
:1004600008B50121142000F031FE0121374800F0C9
:1004700042FC4FF40040ADF8000048208DF8030026
:100480006946334800F066FB2020ADF800004820A4
:100490008DF8030069462F4800F05CFB0120ADF8A1
:1004A000000028208DF803006946294800F052FB1F
:1004B00008BD10B5044614B101202749087026482C
:1004C000007868B32021234800F0D7FB58B14FF4DF
:1004D00000411F4800F0D1FB28B101211C4800F069
:1004E000CCFB01281CD10A2000F0E7F900201A49B2
:1004F00008702021174800F0C0FB08B9012010BD8A
:100500004FF40041124800F0B8FB08B90220F6E7AA
:1005100001210F4800F0B1FB012815D10320EEE7BF
:1005200020210C4800F0A9FB01280DD1C103084887
:1005300000F0A3FB012807D10121054800F09DFB35
:1005400010B90120044908700020D8E700023000EB
:1005500000080140001001401400002008B50121EE
:10056000042000F0B3FD1020ADF8000000208DF84D
:10057000030003208DF802006946484800F0EAFABB
:100580001021464800F093FB08BD1FB50121480724
:1005900000F0A9FD0020009001900290022003903D
:1005A0006946002001F073F80121002001F08CF869
:1005B0000021084601F0E9F81FBD1FB501214807D9
:1005C00000F091FD4FF430600290022003903C2037
:1005D0000090802001906946002001F058F8012128
:1005E000002001F071F80021084601F07EF84FF478
:1005F0008051002001F0C9F80121002001F088F8A5
:100600001FBD1FB50121480700F06DFD4FF430609C
:100610000290022003903C20009040200190694607
:10062000002001F034F80121002001F04DF80021F4
:10063000084601F05AF84FF48051002001F0A5F867
:100640000121002001F064F81FBD2DE9F0470446A8
:10065000204601F085FC81461149484601F09EFB89
:1006600081464FF08B41484601F08EFC824601F0F6
:1006700069FB07464FF066320A4B01F0B7F90546B1
:1006800001F082F98146484601F04AFC85B22946CC
:10069000002001F07AF8BDE8F08700000008014072
:1006A00000007A4466660A4000B585B0012108461C
:1006B00000F00CFDFFF7D4FE0F21002000F060FBDE
:1006C0000521022000F05CFB0021084600F058FBE9
:1006D0002020039001208DF8120000208DF81000DA
:1006E0000C208DF8110003A801F09AF84FF4004097
:1006F000039001208DF8120000208DF810000C20CE
:100700008DF8110003A801F08BF8012001908DF8FD
:100710000A0000208DF8080008208DF8090001A8C3
:1007200001F07EF806208DF8000001208DF803000E
:1007300000208DF8010003208DF80200684600F0CB
:1007400032FF17208DF8000001208DF803000020F3
:100750008DF8010002208DF80200684600F023FFAA
:1007600028208DF8000001208DF8030000208DF86E
:10077000010001208DF80200684600F014FF05B06A
:1007800000BD10B5012001F0B1F808B30A2000F057
:1007900094F80121264800F070FA012815D1254966
:1007A00008602549C1F8A001FFF7EFFE0CE040F614
:1007B000B830FFF74AFFC82000F07FF80020FFF7AD
:1007C00044FFC82000F079F8F1E7012001F09FF81C
:1007D00010BD10B5202001F089F878B10A2000F092
:1007E0006CF82021154800F048FA20B9FFF7E5FE23
:1007F000012010490860202001F089F810BD10B5D3
:100800004FF4004001F072F888B10A2000F055F86A
:100810004FF40041064800F030FA20B9FFF7F1FE2E
:100820000020044908604FF4004001F070F810BD4A
:10083000000801408881224200002142001001404E
:1008400010B56FF0040000F0F8FE2E4800682E4945
:10085000B0FBF1F02D4908700846007800EB40012C
:10086000C1EBC0104FF6FF7101EAC00028490880B3
:1008700010BD0146254A12784A434FF0E0235A61E1
:1008800000229A611A46126942F001021A6100BF01
:100890004FF0E022106900F001021AB100F480323A
:1008A000002AF5D04FF0E022126922F001024FF049
:1008B000E0231A6100229A6170470146144A1288A7
:1008C0004A434FF0E0235A6100229A611A461269A6
:1008D00042F001021A6100BF4FF0E022106900F0FF
:1008E00001021AB100F48032002AF5D04FF0E02264
:1008F000126922F001024FF0E0231A6100229A618E
:10090000704700000000002000127A00160000204E
:1009100018000020014600BF704700BF494A1288F6
:1009200002F04002002AF9D0C2B2464B1B1D1A80C9
:10093000704710B586B00446012144F2040000F06F
:10094000C5FB4FF40070ADF8140003208DF81600BD
:1009500018208DF8170005A93B4800F0FBF84FF46C
:100960008060ADF8140004208DF8170005A9364802
:1009700000F0F0F825208DF8000003208DF801002C
:100980008DF8020001208DF80300684600F00BFE90
:1009900001940020ADF80800ADF80A00ADF80C0095
:1009A000ADF810000C20ADF80E0001A9254800F0AC
:1009B00034FC012240F22551224800F0C6FC0121FE
:1009C000204800F0B6FC06B010BD10B540F225512D
:1009D0001C4800F09FFD10B31A4800F01BFDC4B284
:1009E0001A48008800F40040C8B91848008800F48C
:1009F000804060B10A2C03D000201449088020E018
:100A00001248008840F400401049088019E00D2C7D
:100A100006D10E48008840F480400C49088010E060
:100A20000A480088C0F30D0009490C5407480088A3
:100A3000401C0649088008460088C72801DD0020C0
:100A4000088010BD0038014000080140200000204F
:100A5000380000200948804709480047FEE7FEE7C4
:100A6000FEE7FEE7FEE7FEE7FEE7FEE7FEE7FEE75E
:100A700004480549054A064B704700000F0300086B
:100A800031010008600100206007002060030020A1
:100A90006003002010B50446CC48844208D10121EF
:100AA000042000F02DFB0021042000F029FB46E08B
:100AB000C748844208D10121082000F021FB002111
:100AC000082000F01DFB3AE0C248844208D1012111
:100AD000102000F015FB0021102000F011FB2EE08B
:100AE000BD48844208D10121202000F009FB0021EB
:100AF000202000F005FB22E0B848844208D1012103
:100B0000402000F0FDFA0021402000F0F9FA16E044
:100B1000B348844208D10121802000F0F1FA00217D
:100B2000802000F0EDFA0AE0AE48844207D10121AE
:100B3000801500F0E5FA0021A01500F0E1FA10BDE3
:100B400010B50121084600F0DBFA0021012000F079
:100B5000D7FA10BD2DE9F0410246002500260020FD
:100B600000230024002791F803C00CF00F0591F832
:100B700003C00CF0100CBCF1000F03D091F802C0C0
:100B80004CEA050591F800C0BCF1000F31D01468A3
:100B900000202BE04FF0010C0CFA00F3B1F800C07C
:100BA0000CEA03069E4220D183004FF00F0C0CFA92
:100BB00003F7BC4305FA03FC4CEA040491F803C0B4
:100BC000BCF1280F06D14FF0010C0CFA00FCC2F862
:100BD00014C00AE091F803C0BCF1480F05D14FF0F2
:100BE000010C0CFA00FCC2F810C0401C0828D1D33C
:100BF0001460B1F800C0BCF1FF0F34DD5468002070
:100C00002EE000F1080C4FF0010808FA0CF3B1F8DF
:100C100000C00CEA03069E4221D183004FF00F0C66
:100C20000CFA03F7BC4305FA03FC4CEA040491F800
:100C300003C0BCF1280F05D100F1080C08FA0CF82C
:100C4000C2F8148091F803C0BCF1480F07D100F13D
:100C5000080C4FF0010808FA0CF8C2F81080401C8C
:100C60000828CED35460BDE8F0814FF6FF710180B3
:100C7000022181700421C1707047024600209368F0
:100C80000B400BB1012000E000207047014688684E
:100C900080B2704702460020D3680B400BB10120A0
:100CA00000E0002070470146C86880B270470161CB
:100CB0007047416170470AB1016100E041617047CE
:100CC000C16070474FF480320A4382618161826162
:100CD00082698269704702460020434B18684FF6CC
:100CE0008073184040EA021008433F4B1860704779
:100CF0003E49C8617047F0B50A4600230024002130
:100D0000002500F00046B6F1004F02D1364EF169E1
:100D100001E0354E7168C0F3034583B200F440161C
:100D2000B6F5401F08D121F070612F4E766826F08D
:100D300070662D4F7E6012E000F48016B6F5801FBD
:100D400006D1032606FA05F4A14341F0706106E0DE
:100D5000460D360103FA06F6B14341F0706122B147
:100D6000460D360103FA06F6314300F00046B6F1AF
:100D7000004F02D11C4EF16101E01B4E7160F0BDCD
:100D800030B500228B071C0F0F2303FA04F2164B19
:100D900008338C1053F824309343134C08348D10CF
:100DA00044F8253023468C1053F824308C07240F48
:100DB00000FA04F423430C4C08348D1044F8253019
:100DC00030BD0A49DC31086070470000000801406E
:100DD000000C0140001001400014014000180140C7
:100DE000001C0140002001400000014000002042A2
:100DF000DF48006840F00100DD49086008464068AF
:100E0000DC490840DA49486008460068DA49084089
:100E1000D74908600846006820F48020086008462A
:100E2000406820F4FE0048604FF41F00886070475F
:100E3000CF49096821F48031CD4A11601146096813
:100E400021F480211160B0F5803F03D0B0F5802FF0
:100E50000ED106E0C649096841F48031C44A1160E8
:100E600007E0C349096841F4A021C14A116000E0CC
:100E700000BF00BF704710B50146002200230020CC
:100E80004A11012A02D1BA4C236806E0022A02D193
:100E9000B74C236A01E0B64C636A01F01F020124DB
:100EA00094401C400CB1012000E0002010BD38B57A
:100EB000002000900024002500BF3120FFF7DBFF59
:100EC00005460098401C00900098B0F5A06F01D036
:100ED000002DF2D03120FFF7CEFF08B1012400E051
:100EE0000024204638BD01460020A14A106820F0A9
:100EF000F80040EAC10010607047A04908607047E0
:100F0000024600209A4B586820F47C1042EA010304
:100F10001843974B586070479849086670470146D8
:100F20000020934A506820F0030008435060704747
:100F30008F48406800F00C007047014600208C4A42
:100F4000506820F0F00008435060704701460020D0
:100F5000874A506820F4E0600843506070470146BB
:100F60000020834A506820F4605040EAC10050607D
:100F7000704729B17E4A527A02437D4B5A7204E08F
:100F80007B4A527A82437A4B5A7270477B49D831F6
:100F90000860704701460020754A506820F44040C0
:100FA0000843506070470021714A20321170704A26
:100FB00082F82010012802D004280AD104E001217F
:100FC0006B4A2032117005E00521694A2032117008
:100FD00000E000BF00BF704769490860704764497E
:100FE000096A0143624A11627047654944390860E1
:100FF000704730B500210022002400235C4D6D684D
:1010000005F00C0121B1042905D0082923D105E000
:101010005C4D056022E05B4D05601FE0544D6D683E
:1010200005F47012524D6D6805F48034022505EB0D
:1010300092421CB9544D554305600BE04C4D6D6810
:1010400005F400351DB1504D5543056002E04D4D8E
:101050005543056002E04B4D056000BF00BF444DA5
:101060006D6805F0F0010909484D6B5C0568DD40CD
:1010700045603F4D6D6805F4E061090A434D6B5CC6
:101080004568DD4085603A4D6D6805F46051C90AD8
:101090003E4D6B5C4568DD40C560354D6D6805F4BF
:1010A0004041890B3A4D6B5CC568B5FBF3F50561B2
:1010B00030BD29B12E4A526902432D4B5A6104E0DA
:1010C0002B4A526982432A4B5A61704729B1284AF8
:1010D00092690243264B9A6104E0254A9269824351
:1010E000234B9A61704729B1214AD2690243204BB0
:1010F000DA6104E01E4AD26982431D4BDA6170470F
:1011000029B11B4AD2680243194BDA6004E0184A3D
:10111000D2688243164BDA60704729B1144A1269CB
:101120000243134B1A6104E0114A12698243104BC7
:101130001A61704712494039086070470F49C86406
:1011400070470B49C87170470948406A40F0807089
:1011500007494862704701460020054A92680A40E4
:101160000AB1012000E000207047014988727047F1
:10117000001002400000FFF8FFFFF6FE00004242B0
:101180008004424200127A0000093D002200002043
:101190003200002010B50446FB48844209D10121E9
:1011A0008803FFF7ADFF00214FF48040FFF7A8FF51
:1011B00032E0F648844209D101214804FFF7ADFF2F
:1011C00000214FF40030FFF7A8FF25E0F0488442EB
:1011D00009D101218804FFF7A0FF00214FF48020EE
:1011E000FFF79BFF18E0EB48844209D10121C804B6
:1011F000FFF793FF00214FF40020FFF78EFF0BE075
:10120000E548844208D101210805FFF786FF002147
:101210004FF48010FFF781FF10BD2DE9F04786B035
:1012200005460E460024A24600BFA1460027B0890D
:1012300000B100BF2F462C8A4CF6FF700440F088A6
:1012400004432C82AC894EF6F3100440B0883189F7
:101250000843718908430443AC81AC8A4FF6FF40D0
:101260000440B0890443AC8201A8FFF7C2FEC6481F
:10127000874202D1DDF810A001E0DDF80CA0A889BA
:1012800000F4004040B10AEBCA0000EB0A103168DC
:101290004900B0FBF1F807E00AEBCA0000EB0A10C6
:1012A00031688900B0FBF1F86420B8FBF0F004016C
:1012B0002009642101FB1089A88900F4004040B195
:1012C000322000EBC900B0FBF1F000F0070004434E
:1012D00008E0322000EB09106421B0FBF1F000F0CF
:1012E0000F0004432C8106B0BDE8F0874FF416517F
:1012F000016000218180C18001810C214181002198
:101300008181704710B502460020108A4FF2FF031A
:1013100018400B884C8823438C882343CC88234374
:101320001843108210BD0021018041808180C1805E
:10133000704721B1828942F40052828104E082899F
:101340004DF6FF731A4082817047F0B503460024C2
:1013500000260025002040F66A17B94200D100BFE0
:101360001846C1F3421401F01F06012707FA06F5DB
:10137000012C01D10C3004E0022C01D1103000E02E
:1013800014301AB107682F43076002E00768AF43C3
:101390000760F0BD1AB1838A0B43838202E0838A1F
:1013A0008B4383827047028A4FF6F0731A400282A1
:1013B000028A0A430282704782894FF2FF731A4001
:1013C000828182890A438281704721B1828942F0F9
:1013D0000202828104E082894FF6FD731A40828105
:1013E0007047028A4FF6DF731A400282028A0A436C
:1013F0000282704721B1028A42F48042028204E0F4
:10140000028A4BF6FF731A4002827047C1F308024A
:101410008280704701468888C0F308007047818940
:1014200041F0010181817047028BD2B20283028BAD
:1014300042EA012202837047028B02F47F42028358
:10144000028B0A430283704721B1828A42F0200254
:10145000828204E0828A4FF6DF731A4082827047EC
:1014600021B1828A42F01002828204E0828A4FF621
:10147000EF731A408282704721B1828A42F00802DB
:10148000828204E0828A4FF6F7731A4082827047A4
:1014900021B1828942F40042828103E08289C2F351
:1014A0000E028281704721B1828A42F400628282F8
:1014B00004E0828A4FF2FF731A4082827047828A68
:1014C0004FF6FB731A408282828A0A4382827047F7
:1014D00021B1828A42F00202828204E0828A4FF6BF
:1014E000FD731A408282704702460020B1F5007FEA
:1014F00000D100BF13880B400BB1012000E0002099
:10150000704701F40072B2F5007F00D100BFCA43FA
:101510000280704770B50246002400230025002099
:1015200040F66A16B14200D100BFC1F3421501F086
:101530001F03012606FA03F3012D02D196893340D9
:1015400006E0022D02D1168A334001E0968A33402C
:101550000C12012606FA04F41688344013B10CB1BB
:10156000012000E0002070BD10B50022002340F6ED
:101570006A14A14200D100BF0A1201249440A3B210
:10158000DC43048010BD00000038014000440040EE
:1015900000480040004C00400050004031490143E9
:1015A000314A1160704770B5002100230F22C478C2
:1015B00004B32D4C246804F4E064C4F5E064210A0B
:1015C000C1F10403CA40447804FA03F1847814405A
:1015D00021430901254C0678A155047804F01F0524
:1015E0000124AC4005786D11AD0005F1E025C5F88A
:1015F000004109E0047804F01F050124AC401C4DB3
:101600000678761145F8264070BD1A4A0A40024312
:10161000154B1B1F1A60704739B1134A121D12680F
:101620000243114B1B1D1A6006E00F4A121D12687F
:1016300082430D4B1B1D1A607047042808D14FF0E0
:10164000E021096941F004014FF0E022116107E057
:101650004FF0E021096921F004014FF0E02211610F
:10166000704700000000FA050CED00E000E400E027
:1016700080E100E080FFFF1F10B501214807FFF760
:101680004CFD00214FF00050FFF747FD10BD30B575
:10169000002200235A4C226840F6FE748440A24384
:1016A000D1E900452C438D682C43CD6844EA0503FD
:1016B00003FA00F42243524C226030BD0021016045
:1016C00041608160C160704739B14D4A12680123A1
:1016D00083401A434A4B1A6006E0494A12680123C4
:1016E00083409A43464B1A60704741B1444A12689E
:1016F0004FF4805383401A43414B1A6007E0404A3D
:1017000012684FF4805383409A433D4B1A607047F0
:1017100010B551B13A4A121D126804090123A340C1
:101720001A43374B1B1D1A6009E0354A121D126817
:1017300004090123A3409A43314B1B1D1A6010BDBD
:1017400040B12F49091D096841F003012C4A121DBF
:10175000116007E02A49091D096821F00301284AA0
:10176000121D1160704710B53AB1254B1B6801FA84
:1017700000F42343224C236006E0214B1B6801FA4E
:1017800000F4A3431E4C236010BD08B50022009254
:101790001B4A009200F10802009B1A440092009A32
:1017A000116008BD08B500220092154A009200F1B0
:1017B0001402009B1A440092009A116008BD30B5D3
:1017C00000240023082802D142EA012401E042EA71
:1017D00001440B4B00F120052B441C6030BD08B5C3
:1017E000014600200090064800902C2000EB91005C
:1017F000009A104400900098006880B208BD000074
:1018000000740040002044490860091D0860091D5B
:101810000860091D086041483F491431086070475D
:1018200000213D498279002A3AD00A4612680368AD
:101830009A430B461A600A1D126803689A430B1DEF
:101840001A60027911440A6803681A430A60324A2E
:101850000832126803689A432F4B08331A601A1D26
:10186000126803689A432C4B0C331A604279102A91
:101870000ED11A1F126803681A43274B08331A60E7
:101880001A1D126803681A43234B0C331A600DE0CB
:101890002149427911440A6803681A430A6005E045
:1018A000027911440A6803689A430A60704700216C
:1018B000016001710C21417100218171704716494D
:1018C000103109680143144A103211607047014613
:1018D0000020114A143212680A400AB1012000E0C7
:1018E000002070470C491431086070470146002001
:1018F0000022094B1B6803EA0102074B14331B68E3
:101900000B4013B10AB1012000E0002070470249EA
:10191000143108607047000000040140FFFF0F0011
:1019200070477047704770477047754600F028F859
:10193000AE4605006946534620F00700854618B0BC
:1019400020B5FFF795F8BDE820404FF000064FF0B6
:1019500000074FF000084FF0000B21F00701AC46E4
:10196000ACE8C009ACE8C009ACE8C009ACE8C00903
:101970008D4670470446AFF300802046FEF71FFCFB
:10198000004870470001002021F00042A2F160529F
:10199000B2F5801F01F0004328BFD2F17F6C0BD954
:1019A0005FEA001C43EAC20242EB507018BF704766
:1019B00028BF20F001007047B2F5801FBCBF184659
:1019C00070474FEA410C1CF5001F02D2084600F098
:1019D000A2BB70B500F062F900000089FFF7F6BF06
:1019E0004FF00040A0F58000704700002DE9C04195
:1019F00030B4DFF8A0C23CEA111418BF3CEA13145B
:101A000000F0EC8081EA03051CEA111444EAD57465
:101A100018BF1CEA131500F0C780A4EB05044FF0B3
:101A2000004545EAC12145EAC32341EA505143EA52
:101A3000525304F17F74994204F500344FEAC020F8
:101A40004FEAC22208BF904200F09C804FEA136523
:101A50000FF24016765D4FEA134506FB05F7C7F116
:101A6000807706FB07F74FEAD737A7FB0368764274
:101A7000C8F58038A7FB06CE38BFA8F1010807FBE0
:101A800008E64FF0000EA6FB028CE6FB03CEDCF16D
:101A9000000CCEF1004E38BFAEF1010EA6FB0C5883
:101AA0004FF000074FF00005E6FB0E87A1FB08C6CC
:101AB000A0FB07CE16EB0E0645F10005E1FB07651E
:101AC00015F1E04E7EBFA4F580345FEA46066D4115
:101AD00016F1800745F100054FEA17274FEA066621
:101AE00047EA0567A6F1DE46B6F1805F4FEA1525A5
:101AF0001FD9384624F0010C05EBC471BCF1FE6F10
:101B000001EB0C1102D8F0BCBDE8008124425CBF9F
:101B100001F5801E9EEAC47F02D4F0BCBDE80081BE
:101B2000244238D4F0BCA1F1C041BDE8004100F02E
:101B300003B94FEAD22242EA43524FEAD323A7FB2A
:101B400002864FEAD02040EA415007FB03661EEAB6
:101B50000E0F4FEAD12105FB026658BFA6EB0056D7
:101B6000B6EB00564FEA520E4EEAC37E18EB0E0E4D
:101B700056EB530EBDD518EB02085E417F1C55F1A4
:101B80000005B6E74FF480154FF000074FF0000650
:101B90004FF00008ADE7F0BC4FF0000001F1C0418C
:101BA00001F00041BDE8008111EA0C1F0CEA131599
:101BB00000D00CE013EA0C1F00F025804FF000006D
:101BC000F0BC81EA030101F00041BDE80081F0BCF6
:101BD000BDE8004181EA030100F0AEB8F0BCBDE809
:101BE000004170B500F05AF8097EFC3E00F007B8DD
:101BF00081EA03014FF0000001F00041704781EAE3
:101C0000030100F099B8F0BCBDE800414FF00000BE
:101C100021497047FFFDFBF9F7F5F4F2F0EEEDEB2B
:101C2000E9E8E6E4E3E1E0DEDDDBDAD8D7D5D4D3DA
:101C3000D1D0CFCDCCCBCAC8C7C6C5C4C2C1C0BF26
:101C4000BEBDBCBBBAB9B8B7B6B5B4B3B2B1B0AF2C
:101C5000AEADACABAAA9A8A8A7A6A5A4A3A3A2A110
:101C6000A09F9F9E9D9C9C9B9A99999897979695CB
:101C700095949393929191908F8F8E8E8D8C8C8B67
:101C80008B8A8989888887878685858484838382EF
:101C9000828181800000FF070000F87F0EF1020EB4
:101CA0002EF0030E5EF8046B364205D4012A43EB96
:101CB000030515F5001F12D8012841EB010C1CF596
:101CC000001F0CD80ED14FEAD17C15F5001F0CEB8C
:101CD0004C0C0CF1020C08BF4CEBD37C04E04FF031
:101CE000080C01E04FEAD37C0CEB4C0526FA05F614
:101CF00006F00706B6F1040C06D20EEB860CBDE822
:101D000070404CF0010C6047DFE80CF0090B020258
:101D10004FF000414FF00000A1F5002170BD1946C1
:101D20001046012851EB010418BFD4F5001484BFFC
:101D3000002001F0004170BD0808A0F500114FEA35
:101D40003101704743004FEAD30C4FEA3C0C43404B
:101D50001FBF40070CF1605113F0FE4F70471CF09D
:101D6000006F03D100200CF0004170470CF00043DD
:101D700043EA507010B540EACC0000F086F900BF8D
:101D8000000000924FEA0001FFF7D6BF4FF000417C
:101D90004FF00000A1F50021704700004FF47F0CC8
:101DA0001CEAD0121EBF1CEAD11392EA0C0F93EA70
:101DB0000C0F00F0858090EA010F48BF42F480725A
:101DC00040F4000C41F400002CF07F4120F07F40F3
:101DD00000B58142A2EB03020FF2081CACEB504E9F
:101DE000C0F100009EF800E04FEA4E0E00FB0EFC32
:101DF00038BF49004FEA2C1C02F5FA020CFB0EF327
:101E00004FEACE1E4FEA112C4FEAC1210EEB635E62
:101E100042EB22420EFB0CFC4FEA1C5300FB031169
:101E20004FEA112C4FEA01310EFB0CFC4FEADC4C5F
:101E300000FB0C11C14228BF09184CEB03335DF8BD
:101E400004EB10EB410143EBC250B2F57C0F38BFFD
:101E5000704729D512F0F00F1CBF00F1C04000F010
:101E600000407047008182838485868788898B8CB7
:101E70008D8E8F919293959697999A9C9D9FA0A2F3
:101E8000A3A5A7A8AAACAEB0B2B3B5B7B9BCBEC043
:101E9000C2C5C7C9CCCED1D4D7D9DCDFE2E6E9ECE4
:101EA000F0F3F7FAFE0000004FEA400C0CF1807CE2
:101EB000BCF17E4F28BF7047B0F1C04000F02BB995
:101EC00090EA010F0CEAD11348BF42F480726245D8
:101ED00038BF634507D213F47F0F16D080EA0100A4
:101EE00000F00040704710B500F0CFF8097EFC3ECE
:101EF00000F005B880EA010000F00040704780EA79
:101F0000010000F0004000F006B912F47F0F04BF9A
:101F10000248704780EA010000F0FDB80000C07F71
:101F2000C10DD1F19E0206DB4FEA002343F00043CE
:101F300023FA02F07047004207D54FEA4001B1F1A1
:101F4000FE4F02D24FF00000704710B500F09DF830
:101F500049922480002070476FEA200070470000FB
:101F6000B0FA80F310FA03F2C3F19D030AD0D90549
:101F700001EB1220530638BF704700F1010008BF83
:101F800020F00100704700004FF47F0C1CEAD012D3
:101F90001EBF1CEAD11392EA0C0F93EA0C0F00F05B
:101FA000478090EA010F48BF42F480724FF0004C26
:101FB0004CEA00204CEA012102EB0302A0FB0113D2
:101FC000A2F50002002918BF43F001035B0028BFFF
:101FD0004FEA330342EB22425FEA132C4CEBC25030
:101FE0002EBFBCEB436FB2F57C0F70474FEA036C1A
:101FF000BCF1004F08BF20F00100B2F57C0F38BFE4
:1020000070470BD582F0FF0212F5803FC8BF7047C2
:1020100000F1C040D8BF00F00040704700F5000C50
:102020005FEA4C0C48BF7047B0F1C04000F073B895
:1020300090EA010F0CEAD11348BF42F48072624566
:1020400038BF634504D280EA010000F000407047C9
:1020500010B500F01AF800BF8900013E00F007B883
:1020600000F009B85FEA410C5FEA1C6C08D080EA16
:10207000010000F050B85FEA400C5FEA1C6CF6D13A
:102080004FF00040A0F5800070470EF1020E2EF0D8
:10209000030E5EF8044B244204D44FEA4102B2F12D
:1020A0007F4F11D84FEA4003B3F17F4F0CD80ED1C8
:1020B0004FEAD07CB2F17F4F0CEB4C0C0CF1020CD0
:1020C00008BF4CEBD17C04E04FF0080C01E04FEA74
:1020D000D17C0CEB4C0324FA03F404F00704B4F1B4
:1020E000040C06D20EEB840CBDE810404CF0010C41
:1020F0006047DFE80CF0070802024FF00040A0F54F
:10210000800010BD0846420018BFD2F1807288BF1F
:1021100000F0004010BDFF2141EAD050C0057047DB
:102120004021000800000020380000006C01000879
:1021300078210008380000202807000088010008E6
:1021400000A24A0400000000000000000102030495
:102150000607080901000000000000000000000060
:10216000000000000000010203040102030406074E
:08217000080902040608000042
:0400000508000131BD
:00000001FF
